{
  "_format": "hh-sol-artifact-1",
  "contractName": "Greeter",
  "sourceName": "contracts/Greeter.sol",
  "abi": [
    {
      "inputs": [
        {
          "internalType": "string",
          "name": "_greeting",
          "type": "string"
        }
      ],
      "stateMutability": "nonpayable",
      "type": "constructor"
    },
    {
      "inputs": [],
      "name": "deposit",
      "outputs": [],
      "stateMutability": "payable",
      "type": "function"
    },
    {
      "inputs": [],
      "name": "greet",
      "outputs": [
        {
          "internalType": "string",
          "name": "",
          "type": "string"
        }
      ],
      "stateMutability": "view",
      "type": "function"
    },
    {
      "inputs": [
        {
          "internalType": "string",
          "name": "_greeting",
          "type": "string"
        }
      ],
      "name": "setGreeting",
      "outputs": [],
      "stateMutability": "nonpayable",
      "type": "function"
    }
  ],
  "bytecode": "0x60806040523480156200001157600080fd5b5060405162000c5638038062000c56833981810160405281019062000037919062000278565b6200006760405180606001604052806022815260200162000c3460229139826200008760201b620001f21760201c565b80600090805190602001906200007f92919062000156565b5050620004c5565b620001298282604051602401620000a0929190620002fe565b6040516020818303038152906040527f4b5c4277000000000000000000000000000000000000000000000000000000007bffffffffffffffffffffffffffffffffffffffffffffffffffffffff19166020820180517bffffffffffffffffffffffffffffffffffffffffffffffffffffffff83818316178352505050506200012d60201b60201c565b5050565b60008151905060006a636f6e736f6c652e6c6f679050602083016000808483855afa5050505050565b8280546200016490620003ea565b90600052602060002090601f016020900481019282620001885760008555620001d4565b82601f10620001a357805160ff1916838001178555620001d4565b82800160010185558215620001d4579182015b82811115620001d3578251825591602001919060010190620001b6565b5b509050620001e39190620001e7565b5090565b5b8082111562000202576000816000905550600101620001e8565b5090565b60006200021d620002178462000362565b62000339565b9050828152602081018484840111156200023657600080fd5b62000243848285620003b4565b509392505050565b600082601f8301126200025d57600080fd5b81516200026f84826020860162000206565b91505092915050565b6000602082840312156200028b57600080fd5b600082015167ffffffffffffffff811115620002a657600080fd5b620002b4848285016200024b565b91505092915050565b6000620002ca8262000398565b620002d68185620003a3565b9350620002e8818560208601620003b4565b620002f381620004b4565b840191505092915050565b600060408201905081810360008301526200031a8185620002bd565b90508181036020830152620003308184620002bd565b90509392505050565b60006200034562000358565b905062000353828262000420565b919050565b6000604051905090565b600067ffffffffffffffff82111562000380576200037f62000485565b5b6200038b82620004b4565b9050602081019050919050565b600081519050919050565b600082825260208201905092915050565b60005b83811015620003d4578082015181840152602081019050620003b7565b83811115620003e4576000848401525b50505050565b600060028204905060018216806200040357607f821691505b602082108114156200041a576200041962000456565b5b50919050565b6200042b82620004b4565b810181811067ffffffffffffffff821117156200044d576200044c62000485565b5b80604052505050565b7f4e487b7100000000000000000000000000000000000000000000000000000000600052602260045260246000fd5b7f4e487b7100000000000000000000000000000000000000000000000000000000600052604160045260246000fd5b6000601f19601f8301169050919050565b61075f80620004d56000396000f3fe6080604052600436106100345760003560e01c8063a413686214610039578063cfae321714610062578063d0e30db01461008d575b600080fd5b34801561004557600080fd5b50610060600480360381019061005b9190610461565b610097565b005b34801561006e57600080fd5b5061007761015e565b60405161008491906104db565b60405180910390f35b6100956101f0565b005b61014460405180606001604052806023815260200161070760239139600080546100c090610634565b80601f01602080910402602001604051908101604052809291908181526020018280546100ec90610634565b80156101395780601f1061010e57610100808354040283529160200191610139565b820191906000526020600020905b81548152906001019060200180831161011c57829003601f168201915b50505050508361028e565b806000908051906020019061015a929190610356565b5050565b60606000805461016d90610634565b80601f016020809104026020016040519081016040528092919081815260200182805461019990610634565b80156101e65780601f106101bb576101008083540402835291602001916101e6565b820191906000526020600020905b8154815290600101906020018083116101c957829003601f168201915b5050505050905090565b565b61028a82826040516024016102089291906104fd565b6040516020818303038152906040527f4b5c4277000000000000000000000000000000000000000000000000000000007bffffffffffffffffffffffffffffffffffffffffffffffffffffffff19166020820180517bffffffffffffffffffffffffffffffffffffffffffffffffffffffff838183161783525050505061032d565b5050565b6103288383836040516024016102a693929190610534565b6040516020818303038152906040527f2ced7cef000000000000000000000000000000000000000000000000000000007bffffffffffffffffffffffffffffffffffffffffffffffffffffffff19166020820180517bffffffffffffffffffffffffffffffffffffffffffffffffffffffff838183161783525050505061032d565b505050565b60008151905060006a636f6e736f6c652e6c6f679050602083016000808483855afa5050505050565b82805461036290610634565b90600052602060002090601f01602090048101928261038457600085556103cb565b82601f1061039d57805160ff19168380011785556103cb565b828001600101855582156103cb579182015b828111156103ca5782518255916020019190600101906103af565b5b5090506103d891906103dc565b5090565b5b808211156103f55760008160009055506001016103dd565b5090565b600061040c610407846105a5565b610580565b90508281526020810184848401111561042457600080fd5b61042f8482856105f2565b509392505050565b600082601f83011261044857600080fd5b81356104588482602086016103f9565b91505092915050565b60006020828403121561047357600080fd5b600082013567ffffffffffffffff81111561048d57600080fd5b61049984828501610437565b91505092915050565b60006104ad826105d6565b6104b781856105e1565b93506104c7818560208601610601565b6104d0816106f5565b840191505092915050565b600060208201905081810360008301526104f581846104a2565b905092915050565b6000604082019050818103600083015261051781856104a2565b9050818103602083015261052b81846104a2565b90509392505050565b6000606082019050818103600083015261054e81866104a2565b9050818103602083015261056281856104a2565b9050818103604083015261057681846104a2565b9050949350505050565b600061058a61059b565b90506105968282610666565b919050565b6000604051905090565b600067ffffffffffffffff8211156105c0576105bf6106c6565b5b6105c9826106f5565b9050602081019050919050565b600081519050919050565b600082825260208201905092915050565b82818337600083830152505050565b60005b8381101561061f578082015181840152602081019050610604565b8381111561062e576000848401525b50505050565b6000600282049050600182168061064c57607f821691505b602082108114156106605761065f610697565b5b50919050565b61066f826106f5565b810181811067ffffffffffffffff8211171561068e5761068d6106c6565b5b80604052505050565b7f4e487b7100000000000000000000000000000000000000000000000000000000600052602260045260246000fd5b7f4e487b7100000000000000000000000000000000000000000000000000000000600052604160045260246000fd5b6000601f19601f830116905091905056fe4368616e67696e67206772656574696e672066726f6d202725732720746f2027257327a2646970667358221220fae155af6fa82901a9323a921e2d65b15548950b2e98f939df58d5207e45de7564736f6c634300080400334465706c6f79696e67206120477265657465722077697468206772656574696e673a",
  "linkReferences": {},
  "deployedLinkReferences": {}
}